:020000040001F9
:10400000203400200142010013420100154201004A
:1040100000000000000000000000000000000000A0
:104020000000000000000000000000001742010036
:104030000000000000000000194201001B420100C6
:104040001D4201001D4201001D4201001D420100F0
:104050001D420100000000001D4201001D42010040
:104060001D420100EF4801001D4201001D420100F8
:104070001D4201001D4201001D4201001D420100C0
:104080001D4201007D6401001D4201001D4201002E
:10409000B16401001D420100495B01001D420100A5
:1040A0001D4201001D420100000000000000000050
:1040B0000000000000000000000000000000000000
:1040C00000F002F800F040F80CA030C808382418BE
:1040D0002D18A246671EAB4654465D46AC4201D140
:1040E00000F032F87E460F3E0FCCB6460126334232
:1040F00000D0FB1AA246AB4633431847942D00006C
:10410000B42D0000103A02D378C878C1FAD852070B
:1041100001D330C830C101D504680C60704700007D
:104120000023002400250026103A01D378C1FBD8D3
:10413000520700D330C100D50B6070471FB5C04691
:10414000C0461FBD10B510BD02F066FE1146FFF758
:10415000F5FF00F07FFC02F07EFE03B4FFF7F2FFF4
:1041600003BC02F083FE0000401E00BF00BF00BF82
:1041700000BF00BF00BF00BF00BF00BF00BF00BF47
:1041800000BFF1D170470000401E00BF00BF00BF5C
:1041900000BF00BF00BF00BF00BF00BF00BF00BF27
:1041A00000BFF1D170470000401E00BF00BF00BF3C
:1041B00000BF00BF00BF00BF00BF00BF00BF00BF07
:1041C00000BFF1D17047000070B505460C46164699
:1041D00002E00FCC0FC5103E102EFAD2082E02D3EB
:1041E00003CC03C5083E042E07D301CC01C5361FFE
:1041F00003E021782970641C6D1C761EF9D270BD15
:104200000A4802680F210A430260094880470948AA
:104210000047FEE7FEE7FEE7FEE7FEE7FEE70000F9
:1042200005480649064A074B704700002405004030
:10423000DF420100C1400100202400202034002082
:10424000202C0020202C00202E482F490860704789
:104250002E48008CC0B2012810D12C48808C000759
:10426000000F0BD12948806AF0210840402805D171
:104270002648C06A084201D1012070470020FCE7AF
:104280002248008CC0B2012827D12048808C00072A
:10429000000F22D11D48806AF021084205D11B4839
:1042A000C06A084201D1012070471848806AF02195
:1042B0000840102805D11548C06A084201D10120E4
:1042C000F2E71248806AF0210840302805D10F48F3
:1042D000C06A084201D10120E6E70020E4E710B5FA
:1042E000FFF7CEFF002805D009480A494860C813E7
:1042F00009498861FFF7ACFF002802D00120074977
:10430000886010BD0024F40000200020C00F00F0E1
:10431000DFFF07C000050040006C004000060040C1
:1043200010B5002819DAFD4A03071B0F083B9B084C
:104330009B00D2588307DC0EFF23A3409A438B07D0
:104340001B0E8407E40EA3401A43F44B0407240F0A
:10435000083CA408A4001A5118E0F14A03231B02E8
:10436000D21883089B00D2588307DC0EFF23A3409A
:104370009A438B071B0E8407E40EA3401A43E84BB5
:10438000032424021B198408A4001A5110BD30B55F
:1043900013048C0023430524240707252D026419E8
:1043A0008500635130BD00BFBFF34F8FDD48DB494F
:1043B0001C39C860BFF34F8F00BF00BFFEE7034644
:1043C0000C4622461946D848FFF7EDFF10B50C20E1
:1043D00000F099FB0D2000F096FB10BD38B500BF32
:1043E0000020D24B05220221009002F065F804461D
:1043F00000BF2346002B05D000BFCDA2B121184637
:10440000FFF7D1FF00BF00BF38BD3EB500BF684613
:10441000007801090901491C009168460078F021E3
:1044200088431030009000BF0B22C4A168467CDF97
:10443000044600BF2346002B05D000BFBCA2C52107
:104440001846FFF7B0FF00BF002001900290102136
:10445000684681803C21C18000210181FF2191318A
:10446000418101A87ADF044600BF2346002B05D016
:1044700000BFAFA2CF211846FFF795FF00BF3EBD9A
:1044800010B5A0B005210191AF4800680090AF4879
:104490000178684681703C2111A802F0B8FC022026
:1044A0001190002110A841720121818101A914916C
:1044B0003C2102A802F0ABFC0121684681846946D8
:1044C0000A9102A911A801F0CFF8044600BF2346C3
:1044D000002B05D000BF96A2EC211846FFF763FF22
:1044E00000BF20B010BDF8B507460D4616460024A3
:1044F00003E0285D01F097FB641CB442F9DB0A205D
:1045000001F091FBF8BD38B5002000909048009074
:1045100069468E4800F03CFD044600BF2346002B50
:1045200006D000BF82A2FF210E311846FFF73BFFE5
:1045300000BF38BD1E2087490880084680784008A3
:104540004000401C887008468078022188438149D9
:104550008870084680781C2188430C307D4988701B
:1045600008468078202188437A4988700720C870DF
:1045700010200871704770B505462868002810D1D2
:104580003B217548008876DF044600BF2346002B98
:1045900006D000BF66A2FF2132311846FFF703FFA5
:1045A00000BF70BD034600BF61A2FF213D31184628
:1045B000FFF7F9FE10B588B01C2101A802F027FC16
:1045C00000200190052040040290801003900321F8
:1045D0006846017400214182017560480690604878
:1045E000079001A801F0DBF8044600BF2346002B2A
:1045F00006D000BF4EA2FF2154311846FFF7D3FE6C
:1046000000BF08B010BD10B586B0142101A802F09B
:10461000FEFB00216846017100200290684601738C
:1046200040218182B421C18201A873DF044600BF0A
:104630002346002B06D000BF3DA2FF21693118465A
:10464000FFF7B1FE00BF0C2000F066FA06B010BD07
:1046500070B50546288814284ED006DC10280BD0EB
:10466000112813D013287FD11AE017283ED019281B
:104670007BD05228F7D126E00D2000F04DFA0C2017
:1046800000F04FFAA88834490880A4E00D2000F01B
:1046900048FA0020C04330490880FFF7B4FF9AE091
:1046A0002C4A00212C4800887FDF044600BF2346A7
:1046B000002B06D000BF1EA2FF218E311846FFF747
:1046C00072FE00BF87E00022114623480088A9DF60
:1046D000044600BF2346002B06D000BF14A2FF21D2
:1046E00093311846FFF75FFE00BF74E03222A91D28
:1046F0001C4802F02DFB6EE01A4EB61D3188E88989
:1047000081423AD1002231461348008881DF0446B5
:1047100000BF2346002B2FD000BF27E01CED00E098
:1047200000E100E00400FA05EFBEADDEB820002095
:104730002E2E5C6D61696E2E630000004E6F7264F8
:1047400069635F55415254007C6E01005423002080
:10475000E74401001E2000200420002077450100CE
:10476000A5450100D022002034E019E0EF4AFF21E6
:104770009F311846FFF717FE11E000221146EC4862
:10478000008881DF044600BF2346002B06D000BF0F
:10479000E64AFF21A5311846FFF705FE00BF1AE0E3
:1047A000A879002815D10C2000F0BBF9032211468E
:1047B0001020FFF7ECFD31DF044600BF2346002B3D
:1047C00006D000BFD94AFF21B5311846FFF7EBFDEF
:1047D00000BF00E000BF00BF70BD10B5044620461A
:1047E00001F0B1F82146D34800F0AFFB2046FFF7B7
:1047F0002FFF10BD70B500BF00235022CE491846D0
:1048000001F05BF9054600BF2B46002B06D000BF28
:10481000C64AFF21D7311846FFF7C5FD00BF00BFCC
:10482000C64801F07FF9044600BF2346002B06D09E
:1048300000BFBE4AFF21DB311846FFF7B4FD00BFC1
:1048400070BD10B5032211461020FFF7A0FD10BD6A
:1048500010B53DDF044600BF2346002B06D000BF45
:10486000B24AFF21ED311846FFF79DFD00BF10BD94
:1048700008B500200B230A2209210090082001F02E
:10488000EDF90420AE49486003210220FFF748FDFE
:10489000022000F031F908BDC2B2AA4BDA6100BFB4
:1048A000A94AD269012AFBD10022A74BDA617047DD
:1048B00010B50020A54948600920086100208860E3
:1048C0007D204001A149403108600120A0490860D5
:1048D0000004A049486000209F4908600121092088
:1048E000FFF71EFD092000F007F962B610BD10B5F4
:1048F00000209949086001209549C86097480078D0
:10490000401C964908700846007802287ED10D2088
:1049100093494968012282405140914A516000BF49
:10492000904A911E881E02F0ACF98F4A911E881E93
:1049300002F067F98D4A911E881E02F0E2F989495A
:10494000091F0020085EFF21090208400012884963
:1049500088708448001F0078C8708249091F0220AF
:10496000085EFF21090208400012814908717D4854
:10497000001F807848717B49091F0420085EFF21D1
:104980000902084000127A4988717648001F0079B0
:10499000C8717549091F0020085EFF2109020840FF
:1049A0000012734908727048001F007848726E49FF
:1049B000091F0220085EFF210902084000126C490D
:1049C00088726948001F8078C8726749091F0420EF
:1049D000085EFF2109020840001265490873624819
:1049E000001F007948736149091F0020085EFF21FC
:1049F0000902084000125E4988735C48001F007875
:104A0000C8735A49091F0220085E00E021E0FF2117
:104A1000090208400012564908745448001F807863
:104A200048745249091F0420085EFF21090208400A
:104A300000124F4988744D48001F0079C874012145
:104A40000A2002F077F801204A4908700020434903
:104A5000087010BD01F0FCFE082000F054F808209A
:104A600000F05AF8FFF7B2FCFFF722FFFFF7B6FCA1
:104A7000FFF7E7FEFFF7BEFEFFF7C7FCFFF743FDBA
:104A8000FFF7FEFCFFF796FDFFF754FD18216820A5
:104A900002F06BF8FFF7B7FD2DE0364800780128EB
:104AA00029D100203349087014223149214800F0EF
:104AB000BAFA0446082C0AD000BF2346002B05D0C2
:104AC00000BF1A4A2C491846FFF76DFC00BF14229C
:104AD0002749184800F0D4FA0446082C0BD000BF30
:104AE0002346002B06D000BF104A5921C9001846A2
:104AF000FFF759FC00BFD0E7C206D20E012191405A
:104B00001E4A1160704701210522120707231B026C
:104B1000D2188300D150704701218140104A916022
:104B20007047012181400E4AD16070473047010033
:104B3000042000205423002004230020DB47010030
:104B40000023004000250040002100400095004067
:104B50000090004000930040409100401C20002045
:104B600000050050282000202E20002034200020A6
:104B70000720002006200020C202000000E100E023
:104B80008B884422135270470023DB434422135284
:104B9000704770B504460E46B51D2988208A8142AB
:104BA00010D1288B02280DD128461A3000F095FA32
:104BB000002803D001214620015510E000214620A5
:104BC00001550CE02888A188884208D1A06C0028F3
:104BD00005D02A8B29461A312046A36C984729888C
:104BE000208E814210D1288B02280DD128461A3000
:104BF00000F073FA002803D001214620015510E08F
:104C00000021462001550CE02888A18D884208D15A
:104C1000A06C002805D02A8B29461A312046A36CA7
:104C2000984770BD30B58FB004460D460020079000
:104C300000BF6846007F01090901491C68460177E9
:104C4000007FF021884310306946087700BF00BF1D
:104C50006846407F01090901491C68464177407F49
:104C6000F021884310306946487700BF6846807F4E
:104C700006218843811C684681771C2108A802F020
:104C8000C6F808A8007810218843411808A80170C8
:104C9000002009900B900C9007A80D9000200E901A
:104CA000217868468171032181800020009000BF37
:104CB0006846007801090901491C684601700078BE
:104CC000F021884310306946087000BF00BF684675
:104CD000407801090901491C684641704078F0217B
:104CE000884310306946487000BF684680780621C6
:104CF0008843811C6846817080780821884301467A
:104D0000684681708078102188430146684681702A
:104D1000807841084900491C68468170142102A826
:104D200002F075F801A80290684603900121018203
:104D30000021418214218182608823460C3302AA1B
:104D400008A9A2DF0FB030BD30B58FB004460D46C4
:104D50001C2108A802F05BF808A800780821884305
:104D6000411808A80170007804218843011D08A893
:104D70000170002009900B900C900D900E902178FE
:104D800068468172022101810020019000BF6846BF
:104D9000007901090901491C684601710079F02177
:104DA000884310306946087100BF00BF68464079EB
:104DB00001090901491C684641714079F021884385
:104DC00010306946487100BF6846807906218843E3
:104DD000811C6846817180790821884301466846B4
:104DE00081718079102188430146684681718079FC
:104DF00041084900491C68468171142103A802F04A
:104E000006F802A8039001A8049001216846818257
:104E10000021C182142101836088231D03AA08A9EF
:104E2000A2DF0FB030BD30B58FB004460D46002074
:104E3000079000BF6846007F01090901491C6846C8
:104E40000177007FF021884310306946087700BF62
:104E500000BF6846407F01090901491C6846417747
:104E6000407FF021884310306946487700BF68468C
:104E7000807F06218843811C684681771C2108A811
:104E800001F0C5FF08A8007810218843411808A840
:104E90000170002009900B900C9007A80D90002045
:104EA0000E90217868468171072181800020009052
:104EB00000BF6846007801090901491C6846017075
:104EC0000078F021884310306946087000BF00BFA9
:104ED0006846407801090901491C684641704078DC
:104EE000F021884310306946487000BF68468078DA
:104EF00006218843811C6846817080780821884398
:104F000001466846817080781021884301466846D2
:104F10008170807841084900491C684681701421DD
:104F200002A801F074FF01A80290684603900121D5
:104F300001820021418214218182608823462C3322
:104F400002AA08A9A2DF0FB030BD70B505460C4615
:104F5000002D01D0002C00D170BD2088102804D075
:104F6000112807D050280FD109E021462846FFF725
:104F700007FE0AE021462846FFF706FE05E0214627
:104F80002846FFF706FE00E000BF00BF00BFE3E7D2
:104F900070B586B004460E46554B0FCB01AD0FC51C
:104FA000002C01D0002E02D10E2006B070BD0021D1
:104FB000C943442001533068A064002146200155B4
:104FC000214601A862DF0546002D01D02846ECE706
:104FD00021786846817501218182A21C05A90120E2
:104FE000A0DF0546002D01D02846DEE731462046E9
:104FF000FFF718FE0546002D01D02846D5E73146BB
:105000002046FFF7A1FE0546002D01D02846CCE73B
:1050100031462046FFF707FF0546002D01D0284600
:10502000C3E70020C1E737B584B004460D46002C25
:1050300002D10E2007B030BD4420005B2D498842CC
:1050400003D04620005D002801D10820F2E7684621
:10505000008B142801DD0720ECE700200090019070
:1050600002900390A18968460180039506A80290EA
:105070000121684681704421085B6946A6DFD9E7B3
:1050800037B584B004460D46002C02D10E2007B07F
:1050900030BD4420005B1749884203D04620005DA4
:1050A000002801D10820F2E76846008B142801DDB2
:1050B0000720ECE700200090019002900390A18D62
:1050C00068460180039506A8029001216846817018
:1050D0004421085B6946A6DFD9E7014600BF08788E
:1050E0004B781B0218430246D007C00F70470000E0
:1050F000806E0100FFFF0000F7B584B004460F4644
:1051000006980678B01C1F2803DC2079801C1F2815
:1051100002DD0C2007B0F0BD1F20801B801E85B271
:105120000295B11C781802A97DDF0390039800282E
:1051300001D00398EEE72068022808D1684600896C
:10514000A84204DC09200190684605890BE008208C
:1051500001902079002804D02079A84201DC25792B
:1051600001E068460589681CC2B23046711CCEB2A7
:105170003A543046721CD6B20199395406980178D7
:10518000A81C0818C1B2069801700020C2E7F8B543
:1051900005460C462078001D1F2801DD0C20F8BDB7
:1051A000684679DF0646002E01D03046F7E7032136
:1051B0002278501C2070A95419212278501C20708C
:1051C000A954207841196846008800F08AFA2178AD
:1051D000401820700020E2E7F8B505460F46164655
:1051E0001C466868002801D10720F8BD2078801C83
:1051F000298840181F2801DD0C20F6E72878401C7C
:10520000C1B22278501C2070B1542178481C207003
:1052100077542A8823789819696801F099FD2078D5
:105220002978401820700020DFE730B50346107859
:10523000C01C1F2801DD0C2030BD02241578681C1D
:1052400010704C550A241578681C10704C55157850
:10525000681C10704B550020EEE7FFB587B006467E
:105260001D46109C0020069020780590002747E0FE
:10527000B900706841180A886846028149884181EE
:10528000002203A902A864DF04900498002802D039
:1052900004980BB0F0BD6846017B099881422ED17D
:1052A0000698002801D0002000E00220019020781C
:1052B0006946097B4118019808181F2801DD0C2058
:1052C000E7E70698002809D12078401C2070227852
:1052D000511C08982170A85401200690207842198A
:1052E00003A902A864DF04900498002801D0049860
:1052F000CFE720786946097B4018207000BF7F1CEB
:105300003088B842B4DC0698002806D02178059889
:10531000401C081AC1B2059829540020B9E7FFB50E
:1053200081B0074615460A9E009602223846049B25
:105330000299FFF792FF0446002C02D0204605B0E8
:10534000F0BD0096102229463846049BFFF785FFE2
:105350000446002C01D02046F1E70020EFE701468B
:105360000888062808DB08881922D201904205DD4A
:105370000888E04A904201D00720704748880628F4
:1053800008DB48881922D201904205DD4888D94AB5
:10539000904201D00720F0E70888D64A904208D012
:1053A0004888904205D008884A88904201DD07204D
:1053B000E3E70020E1E7F8B506460D4614462078FD
:1053C000801D1F2801D90C20F8BD3046FFF7C7FF0C
:1053D0000746002F01D03846F6E705212278501CF9
:1053E0002070A95412212278501C2070A9542278D0
:1053F0005119308800F075F9217840182070227812
:105400005119708800F06DF9217840182070002043
:10541000DAE7F8B505460E4614462879801CC7B26F
:105420002078801CC0191F2801DD0C20F8BD781CD5
:10543000C1B22278501C2070B154FF212278501C38
:105440002070B15422789119288800F04AF9217807
:1054500040182070A88800280EDDA868002801D117
:105460000720E3E7AA8823789819A96801F070FC5F
:1054700020782979401820700020D7E7FEB507462C
:105480000E461446786B002801D10720FEBD00208F
:10549000019032E0796B0C22019850430D18287965
:1054A000801CC0B200900098401CC1B22278501CF1
:1054B0002070B15416212278501C2070B1542278EB
:1054C0009119288800F00DF9217840182070A888DB
:1054D00000280EDDA868002801D10720D6E7AA8899
:1054E00023789819A96801F033FC207829794018AD
:1054F00020700198401CC0B201903820C15D019815
:105500008142C7DC0020C1E7F8B504460F461646C5
:105510000025002030702068002809D03246394626
:105520002046FFF7E9FD0546002D01D02846F8BDCD
:105530006079002808D031463846FFF728FE054636
:10554000002D01D02846F2E7208900280BDD3346E4
:105550003A46012120460830FFF73EFE0546002D61
:1055600001D02846E3E7206900280BD000202169FC
:10557000085632463946FFF758FE0546002D01D041
:105580002846D4E7A08A00280CDD3B4606220221EB
:10559000204614300096FFF7C2FE0546002D01D0CC
:1055A0002846C4E7A08B00280CDD3B4607220321D8
:1055B00020461C300096FFF7B2FE0546002D01D0B4
:1055C0002846B4E7A08C00280CDD3B4615221421A8
:1055D000204624300096FFF7A2FE0546002D01D09C
:1055E0002846A4E7E06A002809D032463946E06A36
:1055F000FFF7E1FE0546002D01D0284697E7206B16
:10560000002809D032463946206BFFF702FF0546D5
:10561000002D01D028468AE73820005D002809DDEA
:10562000324639462046FFF729FF0546002D01D0B6
:1056300028467CE728467AE701460889002807D0F3
:10564000C868002804D0C86800780422104201D13C
:10565000072070470020FCE701460889002801DD8B
:10566000072070470020FCE7F3B593B00D460021FA
:10567000129111911398002814D01398FFF7DCFFB2
:105680000446002C02D0204615B0F0BD12AA09A98C
:105690001398FFF739FF0446002C01D02046F3E7AA
:1056A00009AE00E00026002D13D02846FFF7D4FFF6
:1056B0000446002C01D02046E6E711AA01A928469D
:1056C000FFF722FF0446002C01D02046DCE701AFA3
:1056D00000E0002710A803793A46017A304672DFCD
:1056E000D2E702460A70FF20000210400012487004
:1056F00002207047FFFF000001464888B74A128821
:10570000904206DB4888B54A5288904201DC01206D
:1057100070470020FCE738B50546B1480088B1491C
:1057200088423BD0B0480078401CAF490870AF4871
:10573000007B097888420FDBA849A948008875DFFB
:105740000446002C07D0A9488069002803D0A74848
:1057500081692046884721E00020A3490870A348BA
:10576000007C00280FD03B219D48008876DF04464E
:10577000002C07D09D488069002803D09B48816990
:105780002046884700BF99484069002806D000207D
:105790000090964841696846884700BF38BD70B59B
:1057A00005461C2229469148FEF70EFD002090492F
:1057B0000870286800280BD008228848296801F062
:1057C000C7FA86487ADF0446002C08D0204670BD10
:1057D00082487BDF0446002C01D02046F7E70020FA
:1057E000C0437F49088000207F490870814A00211A
:1057F000814800F0E1FEEAE710B57F48006800F05C
:1058000053FF10BD38B57D48FFF776FF002829D13A
:105810007748007800280AD074484069002820D0D2
:1058200000200090714841696846884719E06E4839
:105830000078002802D16D48456801E06B48856812
:10584000002229466C48006800F0FDFE0446002C4A
:1058500007D066488069002803D0644881692046E3
:1058600088470AE061484069002806D0012000907E
:105870005E4841696846884700BF00205C4908705F
:1058800038BD10B50446A088554908800822214635
:105890000E315A4801F05CFA002053490870534811
:1058A000C089002801D1FFF7ADFF10BD70B50546D6
:1058B0000020C0434A49088000204B4908704E48E8
:1058C000006800F0F1FE0446002C07D047488069CC
:1058D000002803D0454881692046884770BD70B5CF
:1058E0000546AC1D20884149C989884220D1208BBA
:1058F00002281DD100BF00BFA17EE27E120211432B
:105900000846C107C90F002902D0FFF77BFF0FE04F
:105910003948006800F0C8FE0646002E07D033481C
:105920008069002803D0314881693046884700BF2C
:1059300070BD10B504460822A11D304801F008FAD8
:10594000FFF760FF10BD10B504462088102806D070
:10595000112808D012280ED0502810D107E0204678
:10596000FFF78FFF0CE02046FFF7A0FF08E020467E
:10597000FFF7B5FF04E02046FFF7DBFF00E000BFC4
:1059800000BF10BD38B5044608222146134801F077
:10599000DFF912487ADF0546002D1CD11748FFF7C2
:1059A000ABFE00280BD10120114908700B490C48AF
:1059B000008875DF054601200B4908700BE00B4895
:1059C0004069002806D001200090084841696846D7
:1059D000884700BF0025284638BD00004A20002027
:1059E00054200020FFFF000052200020A0230020B0
:1059F000482000201757010060200020562000207A
:105A000070B506460C46154629462046FEF7D7FCDB
:105A100070BDF8B559480078002800D1F8BD584845
:105A20000068002801D1012000E00020054655480B
:105A30000068002801D1012000E00020064600BFD8
:105A4000002D14D168464EDF0446052C01D10125F6
:105A50000CE0002C06D000BF4BA269212046FEF7C7
:105A6000A2FC03E0464900980968884700BF002E61
:105A70001AD153480088009069465248006860DF98
:105A80000446052C01D101260DE0002C06D000BFF4
:105A90003DA280212046FEF786FC04E049480068CC
:105AA00038490968884700BF002D02D0002E00D079
:105AB00000E0C5E700BF00BFB0E7FFB581B00C460E
:105AC00016461F46002C02D1072005B0F0BD204627
:105AD0008107890F01D1012100E00021002901D1B6
:105AE0000720F2E7374804603548068036480760EB
:105AF0003649019810DF0546002D01D02846E4E71D
:105B000001201E490870162023DFDEE710B511DFE3
:105B10000446002C01D0012000E000201749087045
:105B2000204610BD0146002901D10E2070471548BE
:105B300001600020FAE70146002901D10E207047DC
:105B40000F4801600020FAE770B51F480068002880
:105B500011D01D4800688047044600BF2546002D2F
:105B600007D000BF08A2FF2133312846FEF71BFCF7
:105B700000BF00BF01E0FFF74CFF70BD64200020B4
:105B800078200020742000202E2E5C2E2E5C2E2EDD
:105B90005C2E2E5C2E2E5C2E2E5C536F7572636510
:105BA0005C73645F636F6D6D6F6E5C736F6674645E
:105BB00065766963655F68616E646C65722E63000B
:105BC000702000206C20002068200020015A010075
:105BD00000BF424880680128FBD100203F4988600F
:105BE0003F488069C0B2704770B504460D46012633
:105BF0000AE02046641E002804DB7D20C000FEF77A
:105C0000B3FA01E0002603E0344880680128F0D1AF
:105C100000BF002C05DB00203049886030488069D7
:105C20002870304670BD2E49C86100BF2B49C96934
:105C30000129FBD10021294AD161704730B50346C3
:105C4000002528466D1C1C5C05E02046FFF7EBFF95
:105C500028466D1C1C5C002CF7D130BDF8B50746FA
:105C60000C4615461E46204600F025F80021304619
:105C700000F02AF81A48C4604661069800280DD042
:105C8000384600F018F80021284600F01DF81448A6
:105C900005618760012012494031C86211481049EE
:105CA00048620420086001200F49886008600020D5
:105CB0000A498860F8BD01210522120707231B024B
:105CC000D2188300D150704710B58A0005231B07F6
:105CD000072424021B1984001A5110BD0021004022
:105CE0000025004000509D000020004010B5002815
:105CF00019DAFE4A03071B0F083B9B089B00D2588A
:105D00008307DC0EFF23A3409A438B071B0E8407F7
:105D1000E40EA3401A43F54B0407240F083CA408E3
:105D2000A4001A5118E0F24A03231B02D218830878
:105D30009B00D2588307DC0EFF23A3409A438B07B6
:105D40001B0E8407E40EA3401A43E94B03242402EC
:105D50001B198408A4001A5110BD10B50446E5486B
:105D6000846003211120FFF7C1FF10BD10B5012091
:105D70000004E1494860E04940394860112000F0E2
:105D8000DEFC112000F0CDFC0120DC4908602F2052
:105D9000FEF7FAF910BD10B5112001218140D44A57
:105DA0008032116000BF01200004D3498860D249CD
:105DB000403988600120D14948602F20FEF7E4F97E
:105DC00010BDF0B5024628205043CD4B1B68C118CA
:105DD000CC480068401C02D1CA48026057E0C9485C
:105DE0008B68006828246043C54C246800198068CB
:105DF000834217D8C348006828235843C04B1B6808
:105E0000C01880688B68C31ABE48006828246043A5
:105E1000BB4C246800198360BA4800684862B948DE
:105E2000026034E08B68B74D2C6828680DE02825A7
:105E30004543B34E3668AD19AD685B1B0446282553
:105E40004543AF4E3668AD19686A451C07D0282512
:105E50004543AB4E3668AD19AD689D42E7D3451C4E
:105E60000CD028254543A64E3668AD19AD68EE1A0C
:105E700028254543A24F3F68ED19AE608B6048620C
:105E8000282565439E4E3668AD196A6200BFF0BD95
:105E900070B502469B4C2168084609E0904200D14B
:105EA00008E0014628244443954D2D686419606A32
:105EB000441CF3D100BF441C00D170BD814209D104
:105EC000904C246828256C438D4D2D686419646AB4
:105ED0008C4D2C6028244443894D2D686419A36897
:105EE00028244443864D2D686419656A28244C4350
:105EF000834E3668A419656228244C43804D2D6872
:105F00006419606A441C0CD0282444437C4D2D68DD
:105F10006419A468E51828244443794E3668A41906
:105F2000A56000BFC9E710B5112000F001FC10BD4D
:105F300010B5142000F0FCFB10BD70B5044672488B
:105F40000068002813D0704A216AE06912689047FF
:105F5000054600BF2E46002E07D000BF6BA2FF21D2
:105F600056313046FEF71FFA00BF00BF02E0E1697C
:105F7000206A884770BDF8B562480068401C39D077
:105F8000002700F00EFC04466C480168204600F033
:105F90000BFC06465B48056811E028206843584919
:105FA00009684418A068B04200D90AE0A068361A0F
:105FB000A068C719656A2046FFF7BFFF00BF681CCD
:105FC000EBD100BF5E4800785E490978884209D16C
:105FD0005C480078401CC0B25A490870022801D1C0
:105FE0000020087057480078800057490F50FFF78D
:105FF0009FFF00BFF8BD014651480078514A127812
:1060000090421DD04E480078401C4D4A10701046FA
:106010000078022801D100201070494800788000E3
:10602000494A10580860454A086812688018434A6F
:106030001060104600680002000A106001207047DE
:106040000020086000BFFAE7FEB52E480068019006
:106050003E48007800903FE00098C0003C49096845
:106060004418257834E01820684361680F18681CCC
:10607000C5B2A078A84200D100253868022802D015
:10608000032822D10EE02821786848431C4909687A
:106090004618307E002804D07868FFF7F9FE00200B
:1060A000307613E00CE01749096828225143144A5E
:1060B0001268881800210176124A416A116000BFF7
:1060C00010480068401CEED100E000BF00BF00BFD8
:1060D0006078A842C7D100BF0098411EC9B20091A4
:1060E0000028B9D107480168019833E01CED00E0B1
:1060F00000E100E0001501404013014000100140A4
:106100007C200020882000209C2000202E2E5C2E49
:106110002E5C2E2E5C2E2E5C2E2E5C2E2E5C536F53
:10612000757263655C6170705F636F6D6D6F6E5CDF
:106130006170705F74696D65722E63008C20002041
:10614000982000209920002090200020812000200D
:1061500084200020814201D00120FEBD0020FCE708
:10616000F0B50346002426E0FE4E366828277E431D
:10617000FD4F3F68F01986689E4203D98668F61A7B
:1061800086601CE086689B1B866834190026866042
:106190000676F44E3568F34F466A3E604669002E37
:1061A00008D00E193602360AC660466906611668BE
:1061B0004662156000BFEB480068401CD4D100BFA8
:1061C000F0BDFEB50746E74800680290E748007852
:1061D000019069E00198C000E549096845185CE054
:1061E000781C07D03E4628207043DF4909684418D0
:1061F000676A23E02978182359436A685018297878
:10620000491C29702978AA78914201D1002129706E
:10621000466828217143D44A12688C180168012904
:1062200002D1217E002900D037E08168E160C16899
:106230002161016961614169216200BFCD49E06866
:106240000968401A0002000ACB49884208D2C949AD
:10625000E068096800F0A8FA21694018A06011E020
:10626000C448E168006800F09FFA00902169009836
:10627000814204D921690098081AA06001E0002039
:10628000A06000BF0020E060206101202076801E19
:1062900060623046FFF795FD00BF781CA0D12878DA
:1062A000697888429CD100BF0198411EC9B2019112
:1062B00000288FD1AB4801680298814201D00120AB
:1062C000FEBD0020FCE7FEB50546A6480068401C60
:1062D00034D0A448006828214843A34909684018DD
:1062E000866800F05EFA0290A2480468214602988F
:1062F00000F05AFAC01C0190681C01D1FFF736FD6E
:106300000198B04201D2304600E0019804192402FD
:10631000240A20469949086000BF00F042FA009024
:106320000299009800F040FAC71C2046029900F03C
:106330003BFA874201D9FFF7F6FD01E0FFF72BFD9D
:10634000FEBDFEB50020C04301908A480468854820
:1063500007686846FFF74FFE0546FFF775FE0646DD
:10636000002D05D001AA21460098FFF7F9FE01266D
:106370000198FFF726FF002800D00126002E02D04A
:106380003846FFF7A0FFFEBD4170704770B502466A
:106390000B465078411C9078884200D1002110783B
:1063A000884201D1002070BD1960507818267043D2
:1063B00055682C182046F6E7FFB581B005460E4615
:1063C0001746E9006A4A126888186946FFF7DEFF37
:1063D0000446002C02D1042005B0F0BD012020604D
:1063E000666000F0DEF9A060E760049820610A981A
:1063F0006061E9005E4A126888180099FFF7C4FFDF
:10640000FFF796FD0020E7E7F8B504460E46E100E9
:10641000574A126888186946FFF7B8FF0546002DED
:1064200001D10420F8BD022028606E60E100504ACE
:10643000126888180099FFF7A7FFFFF779FD002081
:10644000F0E738B50446E100494A12688818694601
:10645000FFF79CFF0546002D01D1042038BD032025
:106460002860001F6860E100414A1268881800999E
:10647000FFF78AFFFFF75CFD0020EFE710B50C2067
:106480003F4949680122824051403D4A516000BF66
:1064900000203C49086000213A4841608160C160A9
:1064A00000203849403908604860FFF764FD10BD9E
:1064B00010B5FFF746FF10BDFFB581B00E46174679
:1064C0001C4620468107890F01D1012100E00021EF
:1064D000002902D1072005B0F0BD002C01D1072012
:1064E000F9E7FFF758FC28490A9808602748067022
:1064F0001D48046000250CE00021282068431A4A4A
:106500001268115028206843174A126880180176D3
:106510006D1CB542F0DB2820704304190320134999
:10652000087013480460183400250CE0E900104A94
:10653000126888180021017041708770446018212A
:1065400079430C196D1C032DF0DB0020C043054975
:10655000086000200E4908700E490870142000F0F1
:10656000EEF819E0882000207C2000208120002007
:10657000842000208C200020FFFF7F004015014078
:1065800000050050401101409C2000208020002088
:10659000982000209920002003211420FFF7A6FB5B
:1065A000142000F0BEF80198FFF7D7FB00F0F9F8CF
:1065B0008049086000208EE770B503460C467E488F
:1065C0000068002801D1082070BD002A01D10720F1
:1065D000FAE7002B01D10720F6E700211CE0282074
:1065E0004843754D2D682858002814D101252820CE
:1065F0004843714E36683550282048436E4D2D680B
:1066000040194460282048436B4D2D684019C261F1
:1066100019600020D8E7491C684800788142DEDB19
:106620000420D1E710B500F092F8012802D0032829
:1066300004D101E0002403E0012401E0022400BFB2
:1066400000BF204610BDFEB504460D4616465A480A
:106650000068002801D10820FEBD58480078844217
:1066600001D2052D01D20720F6E7282060435249C8
:1066700009680858012801D00820EDE72820604368
:106680004D49096840184068012801D1284600E0BA
:1066900000200746FFF7C6FF3B462A4621460096E4
:1066A0000190FFF789FED7E770B5044642480068BD
:1066B000002801D1082070BD40480078844201D3F1
:1066C0000720F8E7282060433B490968085801285B
:1066D00001D00820EFE7FFF7A5FF05462146FFF7A9
:1066E00093FEE8E710B534480068002801D108207F
:1066F00010BDFFF797FF0446FFF7A3FEF8E710B5BC
:10670000044600F04EF82060002010BD70B505462C
:106710000E4614463146284600F046F82060002018
:1067200070BDC206D20E01219140254A116070470A
:10673000C206D20E01219140224A11607047C20662
:10674000D20E012191401F4A80321160704710B56E
:106750001D484068C105C90D002920D00A46103ADD
:10676000104600280DDA184B1C330407240F083C90
:10677000A408A4001B598407E40EE3401B069B0FEA
:106780000BE00F4B032424021B198408A4001B599F
:106790008407E40EE3401B069B0FD8B210BD042013
:1067A000FCE70A48406870470246501A0002000A97
:1067B000704700008C2000207C20002080200020DA
:1067C00000E100E000E200E000ED00E00015014023
:1067D00070B500BF2020C049886000BF00BF1020F6
:1067E000886000BF0420FDF7DFFCBB48006980061D
:1067F000C00F06D0B8480069C006C00F01D0012400
:1068000024E0B5480069C006C00F1ED00024122540
:1068100016E000BF1020B049C86000BF0420FDF79B
:10682000C3FC00BF1020AC49886000BF0420FDF706
:10683000BBFCA94800698006C00F01D0012403E019
:1068400028466D1E0028E4D100E00024204670BDDB
:1068500010B500BFA14805210907072212028918B7
:10686000486100BF00BF052109078918086100BF02
:1068700000BF10209849886000BF00BF886100BF3A
:1068800000BF2020886000BF00BF886100BFFFF705
:106890009FFF10BD10B500BF10208F49886000BF5A
:1068A0000420FDF781FC00BF8B480069C006C00FC3
:1068B000FAD0012010BD10B500BF20208649C86065
:1068C00000BF0420FDF770FCFFF7E4FF002800D1B3
:1068D00010BD00BF20208049886000BF0420FDF764
:1068E00063FC0120F4E770B50646012400BF2020B8
:1068F0007949886100BF80251BE000BF10207649E0
:10690000C86000BF0420FDF74FFC3046284204D089
:1069100000BF20207049886004E000BF20206E493D
:10692000C86000BFFFF7B6FF002801D1002402E0D5
:106930006D08002DE1D100BF00BF10206649C8607E
:1069400000BF0420FDF730FC00BF20206249C86171
:1069500000BF0420FDF728FCFFF79CFF04405E48C1
:106960000069400901214840044000BF10205A49F5
:10697000C86000BF0420FDF717FC00BF2020564967
:10698000886100BF204670BDF8B505460E46002759
:106990000120009000BF20204F49C86100BF802423
:1069A00016E0FFF777FF002801D1009012E04A4877
:1069B00000698006C00F02D038462043074600BF5A
:1069C00010204549C86000BF0420FDF7EDFB6408B6
:1069D000002CE6D100BF00BF20203F49886100BFE6
:1069E0002F70002E02D000BFC86004E000BF20203E
:1069F0003949886000BF0420FDF7D6FBFFF74AFF46
:106A0000002800D1009000BF10203349C86000BFAB
:106A10000420FDF7C9FB0098F8BD10B500BF202089
:106A20002D49886000BF0420FDF7BEFBFFF732FF51
:106A3000002800D110BD00BF20202749C86000BF3A
:106A40000420FDF7B1FB00BF10202349C86000BF40
:106A50000420FDF7A9FB0120ECE7FFB581B0074654
:106A60000D4616460124FFF7D8FF04403846FFF7CD
:106A70003AFF0440F807C00F16D00DE0002E05D1F4
:106A800000212846FFF780FF044004E0012128464A
:106A9000FFF77AFF04406D1C3046711ECEB200280D
:106AA0000FD0002CEAD10CE004E02878FFF71BFFA0
:106AB00004406D1C3046711ECEB2002801D0002C5F
:106AC000F3D10498002801D1002C02D1FFF7F3FE86
:106AD0000440204605B0F0BD000500500C06000043
:106AE000F7B50D4616460023012269469648007800
:106AF000FFF7B3FF04469449097801221143084681
:106B0000134632462946FFF7A8FF04402046FEBD43
:106B100008B5012269467520FFF7E2FF002807D07B
:106B200068460078712801D0002008BD0120FCE7EC
:106B30000020FAE738B504460D46684604704570F3
:106B40000123022269461820FFF787FF38BD38B5B8
:106B500004460D46684604704570012302226946CA
:106B600079480078FFF779FF38BDF8B505460E463D
:106B700001246800FE210840734908707000FE215E
:106B8000084072490870072739466820FFF7DFFF81
:106B9000044009211920FFF7DAFF01211A20FFF72D
:106BA000D6FF09216B20FFF7D2FF18211B20FFF72A
:106BB000CEFF00216A20FFF7CAFF02213720FFF72E
:106BC000C6FF19211C20FFF7C2FF01210A20FFF791
:106BD000B1FFFFF79DFF04402046F8BDF7B50D4615
:106BE00016460023012269461820FFF736FF0446A7
:106BF0000123324629461920FFF72FFF0440204683
:106C0000FEBD7CB504460D46164606226946432065
:106C1000FFF766FF6946087800024978084300B22A
:106C200020800020205E0121C903084204D0208872
:106C30004900401A00B22080694688780002C9786D
:106C4000084300B228800020285E0121C9030842C1
:106C500004D028884900401A00B228806946087983
:106C600000024979084300B230800020305E0121E3
:106C7000C903084204D030884900401A00B230806D
:106C80007CBD7CB504460D461646062269463B206F
:106C9000FFF726FF6946087800024978084300B2EA
:106CA00020800020205E0121C903084204D02088F2
:106CB0004900401A00B22080694688780002C978ED
:106CC000084300B228800020285E0121C903084241
:106CD00004D028884900401A00B228806946087903
:106CE00000024979084300B230800020305E012163
:106CF000C903084204D030884900401A00B23080ED
:106D00007CBD7CB504460D46164606226946032026
:106D1000FFF764FF68464078010268460078014347
:106D200008B220806846C078010268468078014336
:106D300008B228806846407900026946097908430C
:106D400000B230807CBD0000A0200020A1200020E7
:106D5000F8B5042A2CD3830712D00B78491C037092
:106D6000401C521E83070BD00B78491C0370401C3B
:106D7000521E830704D00B78491C0370401C521E1E
:106D80008B079B0F05D0C91ADF002023DE1B08C923
:106D90000AE0FDF719FAF8BD1D4608C9FD401C467A
:106DA000B4402C4310C0121F042AF5D2F308C91AAC
:106DB000521EF0D40B78491C0370401C521EEAD4BA
:106DC0000B78491C0370401C521EE4D409780170F2
:106DD000F8BD01E004C0091F0429FBD28B0701D5CF
:106DE0000280801CC90700D00270704700290BD0B8
:106DF000C30702D00270401C491E022904D3830736
:106E000002D50280801C891EE3E70022EEE7002203
:106E1000DFE7704770477047754600F023F8AE46CD
:106E2000050069465346C008C000854618B020B525
:106E3000FDF7F6F960BC00274908B6460026C0C534
:106E4000C0C5C0C5C0C5C0C5C0C5C0C5C0C5403D22
:106E500049008D4670470446C046C0462046FDF7AF
:106E60007CF9000000487047BC230020014918202D
:106E7000ABBEFEE7260002007047000001000000E4
:106E80009ECADC240EE5A9E093F3A3B50000406E92
:106E9000B06E010000200020A400000004410100A9
:106EA000546F0100A42000207C1300002041010049
:106EB0000024F400FFFF009210000000000000001A
:106EC00000000000000000000000000000000000C2
:106ED00000000000000000000000000000000000B2
:106EE00000000000000000000000000000000000A2
:106EF0000000000000000000000000000000000092
:106F00000000000000000000000000000000000081
:106F10000000000000000000000000000000000071
:106F20000000000000000000000000000000000061
:106F30000000000000000000000000000000000051
:106F40000000000000000000000000000000000041
:046F5000000000003D
:04000005000140C1F5
:00000001FF
